:100000000C9434000C943E000C943E000C943E0082
:100010000C943E000C943E000C943E000C943E0068
:100020000C943E000C943E000C943E000C943E0058
:100030000C943E000C943E000C943E000C943E0048
:100040000C943E000C943E000C943E000C943E0038
:100050000C943E000C943E000C943E000C943E0028
:100060000C943E000C943E0011241FBECFEFD8E04C
:10007000DEBFCDBF0E9440000C9471000C940000C4
:1000800001D0FFCF0F9308D000E00093C50008E037
:100090000093C4000F9108950F930EE10093C100E7
:1000A0000F9108950F9306E00093C1000F910895FA
:1000B0001F931091C00015FFFCCF0093C6000F9155
:1000C00008950F93059111F0F3DFFCCF0F91089580
:1000D0001F931091C00017FFFCCF0091C6001F9125
:0600E0000895F894FFCF23
:00000001FF
